:020000040000fa
:04005c0000000000a0
:020000040000fa
:04007c000000000080
:020000040000fa
:04000c0000000000f0
:020000040000fa
:0400b4000000000048
:020000040000fa
:0400b000000000004c
:020000040000fa
:0401400000000000bb
:020000040000fa
:0401080000000000f3
:020000040000fa
:0401040000000000f7
:020000040000fa
:0401440000000000b7
:020000040000fa
:04007000000000008c
:020000040000fa
:040074000000000088
:020000040000fa
:0401340000000000c7
:020000040000fa
:0401140000000000e7
:020000040000fa
:0401180000000000e3
:020000040000fa
:0400380000000000c4
:020000040000fa
:0402080000000000f2
:020000040000fa
:04020c0000000000ee
:020000040000fa
:0402300000000000ca
:020000040000fa
:0402340000000000c6
:020000040000fa
:0402380000000000c2
:020000040000fa
:04006000000000009c
:020000040000fa
:040088000000000074
:020000040000fa
:0400b8000000000044
:020000040000fa
:0400e000000000001c
:020000040000fa
:04011c0000000000df
:020000040000fa
:0401380000000000c3
:020000040000fa
:04013c0000000000bf
:020000040000fa
:0402000000000000fa
:020000040000fa
:0402040000000000f6
:020000040000fa
:04001c0000000000e0
:020000040000fa
:0400100000000000ec
:020000040000fa
:04021c0000000000de
:020000040000fa
:0402240000000000d6
:020000040000fa
:04022c0000000000ce
:020000040000fa
:0402440000000000b6
:020000040000fa
:04024c0000000000ae
:020000040000fa
:0402540000000000a6
:020000040000fa
:04025c00000000009e
:020000040000fa
:04002c0000000000d0
:020000040000fa
:04003c0000000000c0
:020000040000fa
:0400bc000000000040
:020000040000fa
:0400c000000000003c
:020000040000fa
:0400c4000000000038
:020000040000fa
:0400c8000000000034
:020000040000fa
:04008000000000007c
:020000040000fa
:040084000000000078
:020000040000fa
:04019c00000000005f
:020000040000fa
:04026000000000009a
:020000040000fa
:0400280000000000d4
:020000040000fa
:040078000000000084
:020000040000fa
:04009c000000000060
:020000040000fa
:0400fc000000000000
:020000040000fa
:0401000000000000fb
:020000040000fa
:0401b8000000000043
:020000040000fa
:0401bc00000000003f
:020000040000fa
:0401c000000000003b
:020000040000fa
:0401c4000000000037
:020000040000fa
:0401c8000000000033
:020000040000fa
:0401cc00000000002f
:020000040000fa
:0401d000000000002b
:020000040000fa
:0401d4000000000027
:020000040000fa
:0401d8000000000023
:020000040000fa
:0401dc00000000001f
:020000040000fa
:0401e000000000001b
:020000040000fa
:0401e4000000000017
:020000040000fa
:0401e8000000000013
:020000040000fa
:0401ec00000000000f
:020000040000fa
:0401f000000000000b
:020000040000fa
:0401f4000000000007
:020000040000fa
:0401f8000000000003
:020000040000fa
:0401fc0000000000ff
:020000040000fa
:04023c0000000000be
:020000040000fa
:0401240000000000d7
:020000040000fa
:0401280000000000d3
:020000040000fa
:0401480000000000b3
:020000040000fa
:0401500000000000ab
:020000040000fa
:0401580000000000a3
:020000040000fa
:04015c00000000009f
:020000040000fa
:04016000000000009b
:020000040000fa
:040164000000000097
:020000040000fa
:040168000000000093
:020000040000fa
:040178000000000083
:020000040000fa
:04017c00000000007f
:020000040000fa
:040264000000000096
:020000040000fa
:04006c000000000090
:020000040000fa
:0400f000000000000c
:020000040000fa
:0400180000000000e4
:020000040000fa
:040064000000000098
:020000040000fa
:0402180000000000e2
:020000040000fa
:0402200000000000da
:020000040000fa
:0402280000000000d2
:020000040000fa
:0402400000000000ba
:020000040000fa
:0402480000000000b2
:020000040000fa
:0402500000000000aa
:020000040000fa
:0402580000000000a2
:020000040000fa
:0400300000000000cc
:020000040000fa
:0400400000000000bc
:020000040000fa
:04008c000000000070
:020000040000fa
:04009000000000006c
:020000040000fa
:0400cc000000000030
:020000040000fa
:0400d000000000002c
:020000040000fa
:0400d4000000000028
:020000040000fa
:0400d8000000000024
:020000040000fa
:040198000000000063
:020000040000fa
:0400080000000000f4
:020000040000fa
:0400dc000000000020
:020000040000fa
:0401a000000000005b
:020000040000fa
:0401a4000000000057
:020000040000fa
:0401a8000000000053
:020000040000fa
:0401ac00000000004f
:020000040000fa
:0401b000000000004b
:020000040000fa
:0401b4000000000047
:020000040000fa
:04014c0000000000af
:020000040000fa
:04010c0000000000ef
:020000040000fa
:040110003230303029
:020000040000fa
:0401540030306537ab
:020000040000fa
:040120003034303116
:020000040000fa
:0400240030303463e1
:020000040000fa
:0400680030303030d4
:020000040000fa
:0400ec003030303050
:020000040000fa
:04004c0062620d0ad5
:020000040000fa
:040050003a303230e0
:020000040000fa
:0400a8003066610d50
:020000040000fa
:0400ac000a3a3034a8
:020000040000fa
:040190000a3a3034c3
:020000040000fa
:04019400303033389c
:020000040000fa
:04021000303030302a
:020000040000fa
:0402140063610d0a0b
:020000040000fa
:04002000303030301c
:020000040000fa
:040014000a3a303440
:020000040000fa
:0400340030303066d2
:020000040000fa
:0400440030303030f8
:020000040000fa
:0400480030303030f4
:020000040000fa
:0400940030303030a8
:020000040000fa
:0400980066370d0ab0
:020000040000fa
:0400e40038630d0a66
:020000040000fa
:0400e8003a30323048
:020000040000fa
:0400f4003066610d04
:020000040000fa
:0400f8000a3a30345c
:020000040000fa
:04012c00303030300f
:020000040000fa
:0400540030303030e8
:020000040000fa
:0400580034303030e0
:020000040000fa
:0401300063370d0a1a
:020000040000fa
:0400a000303030309c
:020000040000fa
:0400a4003430303094
:020000040000fa
:04016c0030343031ca
:020000040000fa
:0401700031383030c2
:020000040000fa
:0401740030303030c7
:020000040000fa
:0401840030303030b7
:020000040000fa
:0401880034303030af
:020000040000fa
:04018c003066610d6b
:020000040000fa
:040180003a303230af
:020000040000fa
:0800000034380d0a3a303230a9
:020000040000fa
:1004000030303030343030303066610d0a3a3034bc
:10041000303036303030303030303030303039639a
:100420000d0a3a30323030303030343030303066cf
:10043000610d0a3a303430303838303030303030b6
:100440003030303037340d0a3a30323030303030de
:10045000343030303066610d0a3a30343030623832
:100460003030303030303030303034340d0a3a30c3
:10047000323030303030343030303066610d0a3a4e
:100480003034303065303030303030303030303033
:1004900031630d0a3a303230303030303430303061
:1004a0003066610d0a3a30343031316330303030eb
:1004b00030303030303064660d0a3a30323030300f
:1004c0003030343030303066610d0a3a30343031fb
:1004d00033383030303030303030303063330d0a24
:1004e0003a30323030303030343030303066610db8
:1004f0000a3a3034303133633030303030303030dd
:10050000303062660d0a3a303230303030303430bc
:1005100030303066610d0a3a3034303230303030ad
:10052000303030303030303066610d0a3a303230a1
:1005300030303030343030303066610d0a3a30348b
:100540003032303430303030303030303030663669
:100550000d0a3a303230303030303430303030669e
:10056000610d0a3a30343030316330303030303061
:100570003030303065300d0a3a3032303030303083
:10058000343030303066610d0a3a3034303031303a
:100590003030303030303030303065630d0a3a3032
:1005a000323030303030343030303066610d0a3a1d
:1005b0003034303231633030303030303030303001
:1005c00064650d0a3a3032303030303034303030fb
:1005d0003066610d0a3a30343032323430303030e7
:1005e00030303030303064360d0a3a30323030300e
:1005f0003030343030303066610d0a3a30343032c9
:020000040000fa
:0200000401f009
:040008000d0a3a3073
:020000040000fa
:0200000401f009
:0400200033633030e6
:020000040000fa
:0200000401f009
:04001c00303430301c
:020000040000fa
:0200000401f009
:04001800610d0a3a32
:020000040000fa
:0200000401f009
:0400140030303066f2
:020000040000fa
:0200000401f009
:040010003030343028
:020000040000fa
:0200000401f009
:04000c00323030302e
:020000040000fa
:1006000032633030303030303030303063650d0a96
:100610003a30323030303030343030303066610d86
:100620000a3a3034303234343030303030303030d8
:10063000303062360d0a3a303230303030303430bb
:1006400030303066610d0a3a303430323463303045
:10065000303030303030303061650d0a3a30323071
:1006600030303030343030303066610d0a3a30345a
:100670003032353430303030303030303030613638
:100680000d0a3a303230303030303430303030666d
:10069000610d0a3a3034303235633030303030302a
:1006a0003030303039650d0a3a3032303030303049
:1006b000343030303066610d0a3a303430303263d5
:0c06c000303030303030303030306430ba
:00000001FF
