:020000040000fa
:080000000002040000000000f2
:020000040000fa
:04000800fa020000f8
:020000040000fa
:04000c00fa020000f4
:020000040000fa
:04001000fa020000f0
:020000040000fa
:04001400fa020000ec
:020000040000fa
:04001800fa020000e8
:020000040000fa
:04001c00fa020000e4
:020000040000fa
:04002000fa020000e0
:020000040000fa
:04002400fa020000dc
:020000040000fa
:04002800fa020000d8
:020000040000fa
:04002c00fa020000d4
:020000040000fa
:04003000fa020000d0
:020000040000fa
:04003400fa020000cc
:020000040000fa
:04003800fa020000c8
:020000040000fa
:04003c00fa020000c4
:020000040000fa
:04004000fa020000c0
:020000040000fa
:04004400fa020000bc
:020000040000fa
:04004800fa020000b8
:020000040000fa
:04004c00fa020000b4
:020000040000fa
:04005000fa020000b0
:020000040000fa
:04005400fa020000ac
:020000040000fa
:04005800fa020000a8
:020000040000fa
:04005c00fa020000a4
:020000040000fa
:04006000fa020000a0
:020000040000fa
:04006400fa0200009c
:020000040000fa
:04006800fa02000098
:020000040000fa
:04006c00fa02000094
:020000040000fa
:04007000fa02000090
:020000040000fa
:04007400fa0200008c
:020000040000fa
:04007800fa02000088
:020000040000fa
:04007c00fa02000084
:020000040000fa
:04008000fa02000080
:020000040000fa
:04008400fa0200007c
:020000040000fa
:04008800fa02000078
:020000040000fa
:04008c00fa02000074
:020000040000fa
:04009000fa02000070
:020000040000fa
:04009400fa0200006c
:020000040000fa
:04009800fa02000068
:020000040000fa
:04009c00fa02000064
:020000040000fa
:0400a000fa02000060
:020000040000fa
:0400a400fa0200005c
:020000040000fa
:0400a800fa02000058
:020000040000fa
:0400ac00fa02000054
:020000040000fa
:0400b000fa02000050
:020000040000fa
:0400b400fa0200004c
:020000040000fa
:0400b800fa02000048
:020000040000fa
:0400bc00fa02000044
:020000040000fa
:0400c000fa02000040
:020000040000fa
:0400c400fa0200003c
:020000040000fa
:0400c800fa02000038
:020000040000fa
:0400cc00fa02000034
:020000040000fa
:0400d000fa02000030
:020000040000fa
:0400d400fa0200002c
:020000040000fa
:0400d800fa02000028
:020000040000fa
:0400dc00fa02000024
:020000040000fa
:0400e000fa02000020
:020000040000fa
:0400e400fa0200001c
:020000040000fa
:0400e800fa02000018
:020000040000fa
:0400ec00fa02000014
:020000040000fa
:0400f000fa02000010
:020000040000fa
:0400f400fa0200000c
:020000040000fa
:0400f800fa02000008
:020000040000fa
:0400fc00fa02000004
:020000040000fa
:04010000fa020000ff
:020000040000fa
:04010400fa020000fb
:020000040000fa
:04010800fa020000f7
:020000040000fa
:04010c00fa020000f3
:020000040000fa
:04011000fa020000ef
:020000040000fa
:04011400fa020000eb
:020000040000fa
:04011800fa020000e7
:020000040000fa
:04011c00fa020000e3
:020000040000fa
:04012000fa020000df
:020000040000fa
:04012400fa020000db
:020000040000fa
:04012800fa020000d7
:020000040000fa
:04012c00fa020000d3
:020000040000fa
:04013000fa020000cf
:020000040000fa
:04013400fa020000cb
:020000040000fa
:04013800fa020000c7
:020000040000fa
:04013c00fa020000c3
:020000040000fa
:04014000fa020000bf
:020000040000fa
:04014400fa020000bb
:020000040000fa
:04014800fa020000b7
:020000040000fa
:04014c00fa020000b3
:020000040000fa
:04015000fa020000af
:020000040000fa
:04015400fa020000ab
:020000040000fa
:04015800fa020000a7
:020000040000fa
:04015c00fa020000a3
:020000040000fa
:04016000fa0200009f
:020000040000fa
:04016400fa0200009b
:020000040000fa
:04016800fa02000097
:020000040000fa
:04016c00fa02000093
:020000040000fa
:04017000fa0200008f
:020000040000fa
:04017400fa0200008b
:020000040000fa
:04017800fa02000087
:020000040000fa
:04017c00fa02000083
:020000040000fa
:04018000fa0200007f
:020000040000fa
:04018400fa0200007b
:020000040000fa
:04018800fa02000077
:020000040000fa
:04018c00fa02000073
:020000040000fa
:04019000fa0200006f
:020000040000fa
:04019400fa0200006b
:020000040000fa
:04019800fa02000067
:020000040000fa
:04019c00fa02000063
:020000040000fa
:0401a000fa0200005f
:020000040000fa
:0401a400fa0200005b
:020000040000fa
:0401a800fa02000057
:020000040000fa
:0401ac00fa02000053
:020000040000fa
:0401b000fa0200004f
:020000040000fa
:0401b400fa0200004b
:020000040000fa
:0401b800fa02000047
:020000040000fa
:0401bc00fa02000043
:020000040000fa
:0401c000fa0200003f
:020000040000fa
:0401c400fa0200003b
:020000040000fa
:0401c800fa02000037
:020000040000fa
:0401cc00fa02000033
:020000040000fa
:0401d000fa0200002f
:020000040000fa
:0401d400fa0200002b
:020000040000fa
:0401d800fa02000027
:020000040000fa
:0401dc00fa02000023
:020000040000fa
:0401e000fa0200001f
:020000040000fa
:0401e400fa0200001b
:020000040000fa
:0401e800fa02000017
:020000040000fa
:0401ec00fa02000013
:020000040000fa
:0401f000fa0200000f
:020000040000fa
:0401f400fa0200000b
:020000040000fa
:0401f800fa02000007
:020000040000fa
:0401fc00fa02000003
:020000040000fa
:04020000fa020000fe
:020000040000fa
:04020400fa020000fa
:020000040000fa
:04020800fa020000f6
:020000040000fa
:04020c00fa020000f2
:020000040000fa
:04021000fa020000ee
:020000040000fa
:04021400fa020000ea
:020000040000fa
:04021800fa020000e6
:020000040000fa
:04021c00fa020000e2
:020000040000fa
:04022000fa020000de
:020000040000fa
:04022400fa020000da
:020000040000fa
:04022800fa020000d6
:020000040000fa
:04022c00fa020000d2
:020000040000fa
:04023000fa020000ce
:020000040000fa
:04023400fa020000ca
:020000040000fa
:04023800fa020000c6
:020000040000fa
:04023c00fa020000c2
:020000040000fa
:04024000fa020000be
:020000040000fa
:04024400fa020000ba
:020000040000fa
:04024800fa020000b6
:020000040000fa
:04024c00fa020000b2
:020000040000fa
:04025000fa020000ae
:020000040000fa
:04025400fa020000aa
:020000040000fa
:04025800fa020000a6
:020000040000fa
:04025c00fa020000a2
:020000040000fa
:04026000fa0200009e
:020000040000fa
:04026400fa0200009a
:020000040000fa
:10040000cf0221000eff2d000e0188000000000029
:10041000000020000000e000020032000001200087
:100420002002880014000700740007000000e000ac
:1004300003003a00a06d20000100200002003700f8
:100440000000200001002000810f70000100320038
:100450000f000700000020000000e0000200320052
:100460000000020000000000a806020000000000da
:100470000040da000000fe00200020000000e00044
:1004800002003200100020009001880000000600e9
:10049000a1028800800478000000eb001f003700f4
:1004a000e284440054a0b4009905ba00e2844400f8
:1004b00054a0b4009906ba00e284440054a0b400e9
:1004c0000006eb00476fde00fd07b200ae018800ba
:1004d000636ce10003003a000ad801000000eb0061
:1004e0000e003700606ce10008003a00004deb00a0
:1004f0000a05e800020039003420ec000af0a000f0
:100500008b05e900f9ff3e00040037006168e10057
:10051000010032000086eb000b00070019c7ba008b
:100520000e04e0001905ba0003003a000a00e000da
:10053000dbff3a0000000600fe07b200ae028800b2
:100540008a047800f5ff37000cd0a300e20f4d00bd
:100550001c003b0089027800354dba000a05e8000e
:10056000020039003420ec000af0a0008b05e900fd
:100570000f003200254dba000a05e80002003900dc
:100580003420ec000af0a0008b05e90008003200de
:100590000c00e0000600320015cdba000a05e800a4
:1005a000020039003420ec000af0a0008b05e900bd
:1005b0008984e80054a0b4000b00e000e2ff3a0098
:1005c000000006009902ba00055d78008b05e9007d
:1005d000f7ff3200c82ade00055d78008b05e900d0
:1005e000f3ff32000c00e000f1ff320019ddba0029
:1005f000eeff37000040da000000fe0000000500ba
:020000040000fa
:100600000400fa001007980010c0b300004f7800f3
:100610001e0090000000e000070032001e00900065
:10062000100078004300de006f4060000080fb0097
:10063000ef0f5000040034000040eb00004f780042
:100640001e407800450037001e0090001000780022
:100650004700de00614060000080fb000000e00019
:1006600003003200e10f50001d0032003700370058
:100670001e00900010007800674060000080fb00c2
:1006800080004000200021000080400090007800a1
:100690001e00900010007800674060000080fb00a2
:1006a00000014000200021000000410010007800ff
:1006b000100178001e009000100078004300de005a
:1006c0006f4060000080fb00130020000018dd0078
:1006d0000080ea0000006100800878001e003700fa
:1006e0001e00900010007800674060000080fb0052
:1006f0008000400020002100008040009000780031
:100700001e00900010007800674060000080fb0031
:10071000000140002000210000004100100078008e
:10072000100178001e009000100078004300de00e9
:100730006f4060000080fb00130020000018dd0007
:100740000200700080087800030037000040eb00d2
:10075000004f7800000000001e4078000080fa0082
:10076000000006000600fa00100798002107980014
:1007700010c0b300004f78001e0090000000e000a1
:100780000a0032002e0090000000e0000700320056
:100790001e009000100078004300de006f406000f3
:1007a0000080fb00ef0f5000040034000040eb001d
:1007b000004f78001e407800130037001e009000a4
:1007c00010007800674060000080fb00800040005f
:1007d0002000210000804000100078009000780088
:1007e0001e009000100078004300de006f406000a3
:1007f0000080fb000008de00e10060002e00900099
:10080000010878001e4078000080fa000000060011
:100810000600fa00100798002107980010c0b300e6
:10082000004f78001e0090000000e000070032003a
:100830001e009000100078004300de006f40600052
:100840000080fb00ef0f5000040034000040eb007c
:10085000004f78001e407800410037002e009000c5
:100860000000e00003003200e10f50001d003200e4
:10087000370037001e0090001000780067406000cd
:100880000080fb008000400000012100008040004b
:10089000900078001e009000100078006740600013
:1008a0000080fb0000014000000121000000410029
:1008b00010007800100178001e00900010007800f1
:1008c0004300de006f4060000080fb00130020004a
:1008d0000018dd000080ea00000061008008780058
:1008e0001e0037001e009000100078006740600076
:1008f0000080fb00800040000001210000804000db
:10090000900078001e0090001000780067406000a2
:100910000080fb00000140000001210000004100b8
:1009200010007800100178001e0090001000780080
:100930004300de006f4060000080fb0013002000d9
:100940000018dd0002007000800878000300370006
:100950000040eb00004f7800000000001e407800cf
:100960000080fa00000006000600fa001007980058
:100970002107980010c0b300004f78001e009000bf
:100980000000e0000a0032002e0090000000e000ad
:10099000070032001e009000100078004300de00c7
:1009a0006f4060000080fb00ef0f50000400340037
:1009b0000040eb00004f78001e4078001300370025
:1009c0001e00900010007800674060000080fb006f
:1009d00080004000e001210000804000100078000d
:1009e000900078001e009000100078004300de00a8
:1009f0006f4060000080fb000008de00e100600046
:100a00002e009000010878001e4078000080fa0057
:100a1000000006000400fa001007980010c0b300a0
:100a2000004f78001e0090000000e0000700320038
:100a30001e009000100078004300de006f40600050
:100a40000080fb00ef0f5000040034000040eb007a
:100a5000004f78001e4078000d0037001e00900007
:100a6000e7fe0700004f78001e009000100078009d
:100a70004800de00614060000080fb0080007800dc
:100a80001e00900062ff0700004f78001e407800b3
:100a90000080fa00000006000400fa001007980029
:100aa00010c0b300004f78001e0090000000e0006e
:100ab000070032001e009000100078004300de00a6
:100ac0006f4060000080fb00ef0f50000400340016
:100ad0000040eb00004f78001e4078001b003700fc
:100ae0001e00900010007800674060000080fb004e
:100af000800040000001210000804000900078004c
:100b00001e00900010007800674060000080fb002d
:100b100000014000000121000000410010007800a9
:100b2000100178001e009000100078004300de00e5
:100b30006f4060000080fb00130020000018dd0003
:100b400000006900800878001e4078000080fa00ec
:100b5000000006000600fa001007980041479800c0
:100b600010c0b300004f78001e009000e60f500048
:100b7000040036000040eb00004f78001e40780073
:100b8000090037001e009000800040002000210076
:100b90000080400010007800ce4090008180fb0073
:100ba000010878001e4078000080fa00000006006e
:100bb0000600fa00100798002107980010c0b30043
:100bc000004f78002e0090000000e000030032008b
:100bd0001e009000e60f5000040036000040eb00bd
:100be000004f78001e4078000a0037001e00900079
:100bf00080004000200021000080400010007800ac
:100c000010007800804078002e00900001487800a5
:100c10001e4078000080fa00000006000600fa007e
:100c2000100798004147980010c0b300004f7800ab
:100c30001e009000e60f5000040036000040eb005c
:100c4000004f78001e407800090037001e00900019
:100c5000800040000001210000804000100078006a
:100c6000ce4090008180fb00010878001e40780093
:100c70000080fa00000006000600fa001007980045
:100c80002107980010c0b300004f78002e0090009c
:100c90000000e000030032001e009000e60f50004c
:100ca000040036000040eb00004f78001e40780042
:100cb0000a0037001e00900080004000e001210083
:100cc000008040001000780010007800804078001c
:100cd0002e009000014878001e4078000080fa0045
:100ce000000006000400fa001007980010c0b300ce
:100cf000004f78001e009000e60f50000400360000
:100d00000040eb00004f78001e4078000e003700d6
:100d10001e00900080004000000121000080400083
:100d2000900078001e0090000001400000012100aa
:100d30000000410010007800100078000080ea00f8
:100d4000800878001e4078000080fa00000006004d
:100d50000200fa006e2eef0070738000707288003f
:100d600070728000f0718800f071800070718800ee
:100d700070718000f0708800f070800070708800e2
:100d8000612ea900652ea9000040eb00004f7800fd
:100d9000000021001afe0700004f7800110020001b
:100da000000021009afe0700004f7800652ea80081
:040db000ffff37000a
:020000040000fa
:100db400021000002a00000082000000000e100053
:100dc4000e200e00300e40000e500e00600e040087
:100dd4000e140e00240e34000e440e00540e640053
:100de4000e020e00120e22000e320e00420e5200af
:100df4000e620e00001000000200000080000000df
:040e040000000000ea
:020000040000fa
:0200000401f009
:04000800cfffff0027
:020000040000fa
:0200000401f009
:04000c00ffffff00f3
:020000040000fa
:0200000401f009
:04001000bfffff002f
:020000040000fa
:0200000401f009
:04001400ffffff00eb
:020000040000fa
:0200000401f009
:04001800ffffff00e7
:020000040000fa
:0200000401f009
:04001c00dfffff0003
:020000040000fa
:0200000401f009
:04002000cfffff000f
:00000001FF
